:020000000C945E
:100002002A000C9400000C9400000C9400000C9444
:1000120000000C9400000C9400000C9400000C945E
:1000220000000C9400000C9400000C9400000C944E
:1000320000000C9400000C9400000C9400000C943E
:1000420000000C9400000C9400000C9400000C942E
:100052000000F894EE27ECBBF1E0FBBFEBBFE5BF7D
:100062008DE0A2E0BB27ED938A95E9F780E094E06A
:10007200A0E6ED930197E9F7EFE5EDBFE4E0EEBF0F
:10008200C0E6D1E00C944500EFEFEABBE0E0EBBB49
:10009200E7BBE8BBE4BBE5BBE1BBE2BBE3BFE2BF5E
:1000A200ECBFEFBDEEBDEDBDECBDE7BDE6BDEBBD0A
:1000B200EABDE9BDE8BDE2BDE5BDE4BDE3BDE9BF22
:1000C200E5BFE4BFEAB9E0E8E8B9E0E0E0BFE6B9DD
:1000D200EDB9E6BF15D01AD01FD024D029D02ED02A
:1000E20033D038D03DD036D02FD028D021D01AD01E
:1000F20013D00CD005D034D039D038D0EBCFFFCFCD
:10010200E1E0EBBBA4E6B0E00C94CF00E2E0EBBB95
:10011200A4E6B0E00C94CF00E4E0EBBBA4E6B0E0D0
:100122000C94CF00E8E0EBBBA4E6B0E00C94CF0067
:10013200E0E1EBBBA4E6B0E00C94CF00E0E2EBBB65
:10014200A4E6B0E00C94CF00E0E4EBBBA4E6B0E0A0
:100152000C94CF00E0E8EBBBA4E6B0E00C94CF0037
:10016200E0E0EBBBA4E6B0E00C94CF00E8E8EBBB28
:10017200A4E6B0E00E94CF00E2E2EBBBA4E6B0E06E
:100182000E94CF00E4E4EBBBA4E6B0E00E94CF0003
:10019200E1E1EBBBA4E6B0E00C94CF00109639F09D
:1001A200A89580ED97E00197F1F71197C9F70895A7
:00000001FF
