:040000000C9430002C
:100004000C9400000C9400000C9400000C9400006C
:100014000C9400000C9400000C9400000C9400005C
:100024000C9400000C9400000C9400000C9400004C
:100034000C9400000C9400000C9400000C9400003C
:100044000C9400000C9400000C9400000C9400002C
:10005400000000000400040054000000F894EE279F
:10006400ECBBF1E0FBBFEBBFE5BF8DE0A2E0BB273B
:10007400ED938A95E9F780E094E0A0E6ED9301978B
:10008400E9F7E8E5F0E085919591009761F0A59195
:10009400B59105901590BF01F00105900D9201975F
:1000A400E1F7FB01F0CFEFE5EDBFE4E0EEBFC0E622
:1000B400D1E00C947300B09911C0062C072869F4A0
:1000C400F20131962F01E1E0F0E03F01E4E0F0E0DD
:1000D400E415F50511F44424552402C0662477245C
:1000E4000895E0E0EABBEBBBE7BBEFE0E8BBEFEF72
:1000F400E4BBE0E0E5BBE1BBE2BBE3BFE2BFECBFD6
:10010400EFBDEEBDEDBDECBDE7BDE6BDEBBDEABDAB
:10011400E9BDE8BDE2BDE5BDE4BDE3BDE9BFE5BFC2
:10012400E4BFEAB9E0E8E8B9E0E0E0BFE6B9EDB978
:10013400E6BFC1DF042C052831F432D031D03BD0E6
:100144003AD046D045D0E1E0F0E0E415F50521F4DD
:1001540027D026D03DD03CD0E2E0F0E0E415F50510
:1001640069F41ED0A89AA4E63ED042D031D0A99A10
:10017400A4E6B0E00E941801A9983AD0E3E0F0E0C8
:10018400E415F50559F439D03BD03AD03FD043D0EB
:1001940042D041D032D034D033D038D0CACFFFCFC0
:1001A400A89AA4E6B0E00E941801A898A4E6B0E0DA
:1001B4000E94180180CFA89AA99AA4E6B0E00E94F0
:1001C4001801A898A998A4E6B0E00E94180173CF7A
:1001D400A99AA4E6B0E00E941801A998A4E6B0E0A8
:1001E4000E94180168CFB0E00E941801A8980895F1
:1001F400ACE2B1E00E9418015ECFA89AA8ECF3CF5C
:10020400A8ECB0E00E94180156DFF7CFA8ECB0E0EC
:100214000E94180150CFA89AA8E5B2E00E941801E4
:10022400A898A0E9B1E00E94180145CF109639F0D2
:10023400A89580ED97E00197F1F71197C9F7089514
:00000001FF
