:0A0000000C942A000C9400000C94EC
:10000A0000000C9400000C9400000C9400000C9466
:10001A0000000C9400000C9400000C9400000C9456
:10002A0000000C9400000C9400000C9400000C9446
:10003A0000000C9400000C9400000C9400000C9436
:10004A0000000C9400000C940000F894EE27ECBB1E
:10005A00F1E0FBBFEBBFE5BF8DE0A2E0BB27ED936C
:10006A008A95E9F780E094E0A0E6ED930197E9F735
:10007A00EFE5EDBFE4E0EEBFC0E6D1E00C94450049
:10008A00E0E0EABBEBBBE7BBEFEFE8BBE4BBE0E0D9
:10009A00E5BBE1BBEFEFE2BBE0E0E3BFE2BFECBFF1
:1000AA00EFBDEEBDEDBDECBDE7BDE6BDEBBDEABD06
:1000BA00E9BDE8BDE2BDE5BDE4BDE3BDE9BFE5BF1D
:1000CA00E4BFEAB9E0E8E8B9E0E0E0BFE6B9EDB9D3
:1000DA00E6BF809B0EC0819B0CC0829B0AC0839B9B
:1000EA0008C0849B06C0859B04C0869B02C0879972
:1000FA0001C002C0A89A12C080990EC081990CC092
:10010A0082990AC0839908C0849906C0859904C057
:10011A00869902C0879B01C001C0A898B09BA99884
:10012A00B19BA99AB29BAA98B39BAA9AD2CFFFCFA6
:00000001FF
