:0C0000000C943A000C9400000C940000DA
:10000C000C9400000C9400000C9400000C94000064
:10001C000C9400000C9400000C9400000C94000054
:10002C000C9400000C9400000C9400000C94000044
:10003C000C9400000C9400000C9400000C94000034
:10004C000C9400000C94000000000305796F7520DF
:10005C0077696E002300260080C004000400540061
:10006C000200740164000000F894EE27ECBBF1E090
:10007C00FBBFEBBFE5BF8DE0A2E0BB27ED938A95FC
:10008C00E9F780E094E0A0E6ED930197E9F7E6E666
:10009C00F0E085919591009761F0A591B59105904F
:1000AC001590BF01F00105900D920197E1F7FB014E
:1000BC00F0CFEFE5EDBFE4E0EEBFC0E6D1E00C948D
:1000CC006700E0E0EABBEBBBE7BBEFE0E8BBE0E0DE
:1000DC00E4BBE5BBE1BBE2BBE3BFE2BFECBFEFBD02
:1000EC00EEBDEDBDECBDE7BDE6BDEBBDEABDE9BDCA
:1000FC00E8BDE2BDE5BDE4BDE3BDE9BFE5BFE4BFDE
:10010C00EAB9E0E8E8B9E0E0E0BFE6B9EDB9E6BF8E
:10011C00A4E10DD1B39902C0E1E05E2EB29902C008
:10012C00E2E05E2EB09902C0E3E05E2EB19902C00F
:10013C00E4E05E2EE9E09E2EE0E0E915C0F4A92D86
:10014C00B0E0A05ABE4FE92DF0E03197E05AFE4FD7
:10015C00E081EC93A92DB0E0A659BE4FE92DF0E05B
:10016C003197E659FE4FE081EC939A94E5CFE1E0AC
:10017C00E51559F4A0916001A33111F4E0E003C03E
:10018C00E0916001EF5FE0936001E2E0E51559F466
:10019C00E0916001E03011F4E3E103C0E091600113
:1001AC00E150E0936001E3E0E51559F4E0916A0158
:1001BC00E03011F4E3E003C0E0916A01E150E09318
:1001CC006A01E4E0E51559F4A0916A01A33011F439
:1001DC00E0E003C0E0916A01EF5FE0936A01E09117
:1001EC006001E71521F4E0916A01E61509F019C0E8
:1001FC004394E5E07E0EE0E1E71510F4E9E07E1AA9
:10020C006394E3E0E61510F46A946A94E6E0E4156E
:10021C0039F4EA93A1E04CD0A8E5B0E075D0F6CF64
:10022C0006C07A92A62D44D0A0E6B0E06DD09924F9
:10023C00E42DF0E03296A92DB0E0AE17BF078CF498
:10024C00E92DF0E0E05AFE4FE081EA93E92DF0E071
:10025C00E659FE4FA0812CD0A2E6B0E055D0939485
:10026C00E7CFA4E6B0E00E94D4012FD053CFFFCF4C
:10027C00AA93EBB3EF70AE2FE881E07FEA2BEBBBD8
:10028C008DE08A95F1F7DA9A8DE08A95F1F7DA9894
:10029C008DE08A95F1F774C0AA93A881E9DFE88113
:1002AC00E295E883A881E4DF85E88A95F1F768C0D8
:1002BC00AA93E881F0E0EC58FE4FE081A981AE0FE3
:1002CC00EBDF8980B88022960895A2E05BD0ACE089
:1002DC00E3DFA1E057D0E0E0BE2E8E2E0895AA9366
:1002EC00A881AA3011F08A1448F0E0E0EA93B394A4
:1002FC00AB2DDEDFA881AA3009F442C08394D89AD2
:10030C00A881CADFD8983CC0BA93AA931A93E98102
:10031C00FA813196E983FA833197E4911E2FE0300C
:10032C0019F0A12FDCDFF3CF188123960895AA933F
:10033C00EAB3E06FEABBD29AD09AD19ADA98D898FD
:10034C00D998A880E881E058E0937601E881E054E0
:10035C00E0937701A4E1B0E00E94D40118D017D04B
:10036C0016D0A0E285DF88EC90E00197F1F7A8E2C7
:10037C0093DFA4E091DFA5E88FDFA6E08DDFA5DF9A
:10038C002196089589DFA3E0B0E00C94D401A0E39A
:10039C006FDF88EC90E00197F1F70895109639F033
:1003AC00A89580ED97E00197F1F71197C9F708959B
:00000001FF
