:0A0000000C943C000C9400000C94DA
:10000A0000000C9400000C9400000C9400000C9466
:10001A0000000C9400000C9400000C9400000C9456
:10002A0000000C9400000C9400000C9400000C9446
:10003A0069000C9400000C9400000C9400000C94CD
:10004A0000000C9400000C9400001027E8036400E0
:10005A000A000100001000011000010054313D2582
:10006A002D35640080C0020079016E000000F8940A
:10007A00EE27ECBBF1E0FBBFEBBFE5BF8DE0A2E0F2
:10008A00BB27ED938A95E9F780E094E0A0E6ED932B
:10009A000197E9F7E0E7F0E085919591009761F023
:1000AA00A591B59105901590BF01F00105900D92AB
:1000BA000197E1F7FB01F0CFEFE5EDBFE4E0EEBF1A
:1000CA00C0E6D1E00C9496008A93AA93BA93EA9375
:1000DA00FA93EFB7EA93E0917801A0E6B1E0F0E095
:1000EA00EE0FFF1FAE0FBF1FE4B1F5B1ED93FC9306
:1000FA00A0917801AF5FA0937801A23018F0E0E0F8
:10010A00E0937801E0917801E7B98BE18A95F1F7FC
:10011A00369AE991EFBFF991E991B991A99189913B
:10012A001895E0E0EABBEBBBE7BBE8BBE4BBE5BB89
:10013A00EFEFE1BBE0E0E2BBE3BFE2BFECBFEFBD44
:10014A00EEBDEDBDECBDE7BDE6BDEBBDEABDE9BD6B
:10015A00E8BDE2BDE5BDE4BDE3BDE9BFE5BFE4BF7F
:10016A00EAB9E0E8E8B9E0E0E7B9EBECE6B9E0E0E3
:10017A00E0BFEDB9E6BFA4E17DD07894E0E0EA9370
:10018A00A0E039D0E4E6F1E0FA93EA93E6E6F0E09B
:10019A00FA93EA93E0916201F09163016627772767
:1001AA000E94820384E00E94E1022896A4E6B1E05C
:1001BA0050D0E4CFFFCFAA93E5B3EF70AE2FE8811A
:1001CA00E07FEA2BE5BB8DE08A95F1F7AA9A8DE0EC
:1001DA008A95F1F7AA988DE08A95F1F777C0AA93E4
:1001EA00A881E9DFE881E295E883A881E4DF85E870
:1001FA008A95F1F76BC0AA93E881F0E0E758FE4FC1
:10020A00E081A981AE0FEBDF5980488022960895DC
:10021A00A2E00E942E03ACE0E2DFA1E00E942E03DE
:10022A00E0E04E2E5E2E0895AA93A881AA3011F01E
:10023A00571448F0E0E0EA934394A42DDCDFA88148
:10024A00AA3009F443C05394A89AA881C8DFA89891
:10025A003DC0BA93AA931A93A981BA81ED91A98351
:10026A00BA831E2FE03019F0A12FDEDFF5CF1881F7
:10027A0023960895AA93E4B3E06FE4BBA29AA09AE6
:10028A00A19AAA98A898A9987880E881E058E0935A
:10029A007B01E881E054E0937C01A4E1B0E00E9494
:1002AA0068030E9434030E9434030E943403A0E2CC
:1002BA0082DF88EC90E00197F1F7A8E290DFA4E0F2
:1002CA008EDFA5E88CDFA6E08ADFA2DF21960895FB
:1002DA00BA93AA931A930A93AA81BB8112960E948F
:1002EA007A03309759F1AA81BB8114960E947A0346
:1002FA008F01309761F00230E0E01E0798F0F801B4
:10030A0031978F01AA81BB811496ED93FC93AA8140
:10031A00BB811296ED91FD913196FE93EE93319742
:10032A00AC81A083AA81BB810E947A03FF232AF0B1
:10033A00ED91FD913196FE93EE9306C0AA81BB81A1
:10034A00EFEFFFEFED93FC9319810881259608954D
:10035A00BA93AA9326970E94870310E0AC85BD85BD
:10036A00E0E0F0E0ED93FC93EA89FB893196EA8BB1
:10037A00FB8B3197E4912E2FE03009F415C1E12F60
:10038A00E03039F4253211F411E002C00E943C0336
:10039A000AC1E130A9F4253219F40E943C0302C1D2
:1003AA0012E040E000E02D3211F401E0FCC02B32F3
:1003BA0011F44BE2F8C0203211F440E2F4C002C05A
:1003CA00E23039F450E013E0203311F40068EBC056
:1003DA0003C0E33009F0E7C0203310F02A3308F0F5
:1003EA0007C0AAE05A9F502DE22FE0535E0FDBC0F0
:1003FA00E22FE33649F40E944303E889F989A4818C
:10040A00AA930E944903CEC0E33741F40E944303F2
:10041A000E944F030E9415031E2F0AC0E03761F4A1
:10042A000E9443030E944F030E9421031E2F08606B
:10043A0002600F7730E034C0E43611F0E93611F487
:10044A00046002C0E53731F4E4E5F0E0EE83FF83AF
:10045A0015E00CC0E83511F4086003C0E83709F06C
:10046A00A1C0EEE5F0E0EE83FF8314E002FF14C0C2
:10047A000E9443030E945903AB85AA233AF4EA85F2
:10048A00FB850E947603EA87FB874DE2403011F034
:10049A001F5F01C00B7F04C00E9443030E945903DF
:1004AA0000FD11C0151778F407FF08C002FF04C049
:1004BA000B7F242F115001C020E301C020E20E94CB
:1004CA003C035150EFCF312F01FF17C03030A1F05C
:1004DA0003FF06C0EE81FF812591EE83FF8305C0ED
:1004EA00AE81BF812D91AE83BF830E943C03503001
:1004FA0009F051503150EACF4BC020E3EE81FF8121
:10050A000E947E03E887F987EE81FF813296EE83A7
:10051A00FF83E885F985AA85BB85AE17BF0750F02A
:10052A002F5FA885B985EA85FB85EA1BFB0BEA875D
:10053A00FB87EFCF2A3328F003FF02C0295F01C0EF
:10054A00295D04FD1AC0213320F4A885B9851197C5
:10055A0009F409C0531710F000FF01C013C020E2CC
:10056A0007FF0BC020E3006102FF07C00B7F4A931D
:10057A000E944903503009F051500E943C03503008
:10058A0009F051503150A885B985129708F0B5CFB6
:10059A0000FF08C0503031F05150E0E2EA930E9467
:1005AA004903F8CF10E0E0CEAC85BD850E947A03FE
:1005BA000E948E0364960895FF92F82E26970E9451
:1005CA0089030E946103309719F4EFEFFFEF23C00C
:1005DA00DE0116960E9472038D010E946103EE836A
:1005EA00FF83E0E0E887E987DE011A960E9472033A
:1005FA000E947A03FA93EA931A930A93EDE6F1E0DA
:10060A00FA93EA93DE011A96A3DE9F01AE81BF81B7
:10061A00E0E0EC93F9010E9490032A96FF90089576
:10062A00BA93AA93A991B991EE27FF276D916623F0
:10063A0011F03196FBCF0895BA93AA93AA27BB2744
:10064A00E991F9910590002011F01196FBCFFD0177
:10065A0008950E94F400A3E0B0E00C946803A0E3BC
:10066A000E94E00088EC90E00197F1F708952A9340
:10067A00AD85BE85EF85F88909950895E889F989D8
:10068A003497E88BF98B0895AD85BE85EF85F88997
:10069A0009950895A889B98914960E947A03EE8368
:1006AA00FF83AE81BF810895A889B98914960E94F3
:1006BA007A03EA87FB870895DE011C960E9472037B
:1006CA000E947A030895109639F0A89580ED97E074
:1006DA000197F1F71197C9F708950024AF0DB01DDE
:1006EA000895F195E195F0400895ED91FC911197E7
:1006FA0008950590F491E02D08957A936A93FA93F8
:10070A00EA9308955A934A933A932A931A930A9327
:10071A0008955D814C813B812A8119810881089560
:00000001FF
