:080000000C942A000C9400008E
:100008000C9400000C9400000C9400000C94000068
:100018000C9400000C9400000C9445000C94000013
:100028000C9400000C9400000C9400000C94000048
:100038000C9400000C9400000C9400000C94000038
:100048000C9400000C9400000C940000F894EE2727
:10005800ECBBF1E0FBBFEBBFE5BF8DE0A2E0BB2747
:10006800ED938A95E9F780E094E0A0E6ED93019797
:10007800E9F7EFE5EDBFE4E0EEBFC0E6D1E00C94B0
:100088007E00AA93EA93FA93EFB7EA93E8E1FCEFCC
:10009800FDBDECBDF20131962F01ED3DA0E0FA0760
:1000A80038F0909B02C0909801C0909A442455243F
:1000B800F30131963F01EF39A2E0FA0738F0919B3E
:1000C80002C0919801C0919A66247724F401319670
:1000D8004F01E134A6E0FA0738F0929B02C09298EB
:1000E80001C0929A88249924E991EFBFF991E99186
:1000F800A9911895E0E0EABBEBBBE7BBE8BBE4BB22
:10010800E5BBEFEFE1BBE0E0E2BBE3BFE2BFECBF82
:10011800EFBDE2E0EEBDE0E0EDBDECBDE7BDE6BD64
:10012800EBBDEABDE9BDE8BDE2BDE5BDE4BDE3BDAB
:10013800E4E0E9BFE0E0E5BFE4BFEAB9E0E8E8B938
:10014800E0E0E0BFE6B9EDB9E6BF7894FFCFFFCFB6
:00000001FF
