:100000000C9440000C9400000C9400000C94000030
:100010000C9400000C9400000C9400000C94000060
:100020000C9400000C9400000C9400000C94000050
:100030000C9400000C9400000C9400000C94000040
:100040000C9400000C9400000C9400000C94000030
:100050000C940000000005003F0006005B004F000C
:1000600066006D007D0027007F006F000100020028
:100070005400020006005600130060015800000002
:10008000F894EE27ECBBF1E0FBBFEBBFE5BF8DE0E2
:10009000A2E0BB27ED938A95E9F780E094E0A0E623
:1000A000ED930197E9F7ECE6F0E0859195910097E3
:1000B00061F0A591B59105901590BF01F0010590F3
:1000C0000D920197E1F7FB01F0CFEFE5EDBFE4E022
:1000D000EEBFC0E6D1E00C946D00E0E0EABBE7BB08
:1000E000EFEFE4BBE1BBEBBBE8BB23013DD0B09934
:1000F00002C0909A07C0B19905C09098919A6894EF
:1001000020F8230120FE10C02FD0F20131972F01DB
:10011000A8EEB3E00E94BE00042C052829F424D0E8
:100120009198E89420F82301C8990DC0E9E0F0E027
:100130004E165F061CF4F30131963F01A4EFB1E0C7
:100140000E94BE002301C9990DC0E1E0F0E0E41572
:10015000F5051CF4F30131973F01A4EFB1E00E94D3
:10016000BE002301C3CFFFCFF201A0E6B1E0EE0F46
:10017000FF1FAE0FBF1FEC91E5BB0895109639F03D
:10018000A8958AEF90E00197F1F71197C9F70895C4
:00000001FF
