:040000000C94360026
:100004000C9400000C9400000C9400000C9400006C
:100014000C9400000C9400000C9400000C9400005C
:100024000C9400000C9400000C9400000C9400004C
:100034000C9400000C9400000C9400000C9400003C
:100044000C9400000C9400000C9400000C9400002C
:100054004261626165690020416C6920000080C0D2
:100064000200600162000000F894EE27ECBBF1E0AE
:10007400FBBFEBBFE5BF8DE0A2E0BB27ED938A9504
:10008400E9F780E094E0A0E6ED930197E9F7E4E670
:10009400F0E085919591009761F0A591B591059057
:1000A4001590BF01F00105900D920197E1F7FB0156
:1000B400F0CFEFE5EDBFE4E0EEBFC0E6D1E00C9495
:1000C4006300E0E0EABBEBBBE7BBE8BBE4BBE5BB3A
:1000D400E1BBE2BBE3BFE2BFECBFEFBDEEBDEDBDF4
:1000E400ECBDE7BDE6BDEBBDEABDE9BDE8BDE2BDE3
:1000F400E5BDE4BDE3BDE9BFE5BFE4BFEAB9E0E8BF
:10010400E8B9E0E0E0BFE6B9EDB9E6BFA0E17ED032
:10011400E5E0EA93A0E03BD0A4E5B0E064D0442459
:100124005524ECE0F0E04E165F0624F4F20131961B
:1001340097D0F7CFECE0F0E02F010024041405047D
:1001440024F4F20131978CD0F8CFE2CFFFCFAA93F9
:10015400E5B3EF70AE2FE881E07FEA2BE5BB82E0E8
:100164008A95F1F7AA9A82E08A95F1F7AA9882E033
:100174008A95F1F773C0AA93A881E9DFE881E29533
:10018400E883A881E4DF81E18A95F1F767C0AA9347
:10019400E881F0E0E05AFE4FE081A981AE0FEBDF89
:1001A4007980688022960895A2E065D0ACE0E3DF10
:1001B400A1E061D0E0E06E2E7E2E0895AA93A8817E
:1001C400AA3011F0791448F0E0E0EA936394A62D84
:1001D400DEDFA881AA3009F441C07394A89AA881EB
:1001E400CADFA8983BC0BA93AA931A93E981FA810B
:1001F4003196E983FA833197E4911E2FE03019F0A8
:10020400A12FDCDFF3CF188123960895AA93E4B3DA
:10021400E06FE4BBA29AA09AA19AAA98A898A99878
:100224009880E881E058E0936201E881E054E0932B
:100234006301A4E1B0E00E94480122D021D020D083
:10024400A0E285DF81E28A95F1F7A8E294DFA4E0D9
:1002540092DFA5E890DFA6E08EDFA6DF2196089561
:100264002F014A92A1E093DFABE5B0E0BCDFACE242
:10027400B1E00C9448017FDFA3E0B0E00C944801A6
:10028400A0E365DF81E28A95F1F70895109639F0CD
:10029400A8958AEF90E00197F1F71197C9F70895AF
:00000001FF
