:0C0000000C9468000C9400000C940000AC
:10000C000C9400000C9400000C9400000C94000064
:10001C000C9400000C9400000C9400000C94000054
:10002C000C9400000C9400000C9400000C94000044
:10003C000C9400000C9400000C9400000C94000034
:10004C000C9400000C9400001027E80364000A00D4
:10005C0001000010000110000100204D494C4144EA
:10006C0020003300320031003600350034003000FF
:10007C00230039003800370080C0020060016E0098
:10008C00020062017000020064017200020066014D
:10009C00740002006801760002006A017800020018
:1000AC006C017A0002006E017C00020070017E007F
:1000BC0002007201800002007401820002007601CD
:1000CC0084000000F894EE27ECBBF1E0FBBFEBBF23
:1000DC00E5BF8DE0A2E0BB27ED938A95E9F780E0C0
:1000EC0094E0A0E6ED930197E9F7E6E8F0E085915E
:1000FC009591009761F0A591B59105901590BF0170
:10010C00F00105900D920197E1F7FB01F0CFEFE5BF
:10011C00EDBFE4E0EEBFC0E6D1E00C949500E0EF5B
:10012C00EABBE0E0EBBBE7BBE8BBE2E0E4BBE0E052
:10013C00E5BBE1BBE2BBE3BFE2BFECBFEFBDEEBD95
:10014C00EDBDECBDE7BDE6BDEBBDEABDE9BDE8BD6F
:10015C00E2BDE5BDE4BDE3BDE9BFE5BFE4BFEAB97F
:10016C00E0E8E8B9E0E0E0BFE6B9EDB9E6BFA0E150
:10017C00E9D0E1E0EA93A1E093D0A6E6B0E0CFD0DD
:10018C00E0E0EA93A0E08CD0DC98DD9ADE9ADF9A6E
:10019C00CA9905C00E94D501A0E6B1E0B1D0C999B9
:1001AC0005C00E94D501A2E6B1E0AAD0C89905C04D
:1001BC000E94D501A4E6B1E0A3D0DC9ADD98DE9ACA
:1001CC00DF9ACA9905C00E94D501A6E6B1E098D085
:1001DC00C99905C00E94D501A8E6B1E091D0C89993
:1001EC0005C00E94D501AAE6B1E08AD0DC9ADD9A5E
:1001FC00DE9ADF980E94D901CA9907C0A99AA8EE85
:10020C00B3E00E94E401A99858D0C99905C00E9496
:10021C00D501ACE6B1E074D0C89905C00E94D501F7
:10022C00AEE6B1E06DD0DC9ADD9ADE98DF9A0E94E2
:10023C00D901CA9905C00E94D501A0E7B1E060D0F0
:10024C00C99905C00E94D501A2E7B1E059D0C8995F
:10025C0005C00E94D501A4E7B1E052D095CFFFCFE5
:10026C00AA93E8B3EF70AE2FE881E07FEA2BE8BBEE
:10027C0082E08A95F1F7969A82E08A95F1F7969842
:10028C0082E08A95F1F789C0AA93A881E9DFE88119
:10029C00E295E883A881E4DF81E18A95F1F77DC0DE
:1002AC00AA93E881F0E0EA58FE4FE081A981AE0FF5
:1002BC00EBDF5980488022960895A2E0E5DF0E948A
:1002CC00D901ACE0E1DFA1E0DFDF0E94D901E0E081
:1002DC004E2E5E2E0895AA93A881AA3011F05714C1
:1002EC0048F0E0E0EA934394A42DDADFA881AA3029
:1002FC0009F453C05394AB9AA881C6DFAB984DC098
:10030C00BA93AA931A93A981BA81ED91A983BA835E
:10031C001E2FE03019F0A12FDEDFF5CF10C0BA93FD
:10032C00AA931A93E981FA813196E983FA8331977A
:10033C00E4911E2FE03019F0A12FCDDFF3CF1881FF
:10034C0023960895AA93E7B3E06FE7BB8E9AA39A1E
:10035C008F9A9698AB9897987880E881E058E093BC
:10036C007801E881E054E0937901A4E1B0E00E94C7
:10037C00E4010E94DD010E94DD010E94DD01A0E28A
:10038C006FDF81E28A95F1F7A8E27EDFA4E07CDFE3
:10039C00A5E87ADFA6E078DF90DF21960895ACE23D
:1003AC00B1E00C94E401A3E0B0E00C94E401A0E310
:1003BC000E94360181E28A95F1F70895109639F082
:1003CC00A8958AEF90E00197F1F71197C9F7089576
:00000001FF
