:080000000C9443000C94000075
:100008000C9400000C9400000C9400000C94000068
:100018000C9400000C9400000C9400000C94000058
:100028000C9400000C9400000C9400000C94000048
:100038000C9400000C9400000C9400000C94000038
:100048000C9400000C9400000C9400001027E803A6
:1000580064000A0001000010000110000100000007
:100068000A00743D2564006D61783D25640080C0F8
:100078000400040066000200700176000000F89495
:10008800EE27ECBBF1E0FBBFEBBFE5BF8DE0A2E0E4
:10009800BB27ED938A95E9F780E094E0A0E6ED931D
:1000A8000197E9F7E8E7F0E085919591009761F00D
:1000B800A591B59105901590BF01F00105900D929D
:1000C8000197E1F7FB01F0CFEFE5EDBFE4E0EEBF0C
:1000D800C0E6D1E00C947000E0E0EABBEFEFEBBBC8
:1000E800E0E0E7BBE8BBE4BBE5BBEFEFE1BBE2BBAD
:1000F800E0E0E3BFE2BFECBFEFBDEEBDEDBDECBDA0
:10010800E7BDE6BDEBBDEABDE9BDE8BDE2BDE5BDC5
:10011800E4BDE3BDE9BFE5BFE4BFEAB9E0E8E8B99B
:10012800E0E0E0BFE6B9EDB9E6BFA0E18FD0E0E6D8
:10013800F1E0FA93EA93EAE6F0E0FA93EA93F2013F
:100148000E941803A0E00E942303E0E6F1E0FA937E
:10015800EA93EFE6F0E0FA93EA93F3010E941803BA
:10016800A1E00E942303C89910C0F20131962F0123
:100178004614570454F0909AA0EDB7E00E94620329
:100188009098ACE2B1E00E946203D1CFFFCFAA936E
:10019800E5B3EF70AE2FE881E07FEA2BE5BB82E0A4
:1001A8008A95F1F7AA9A82E08A95F1F7AA9882E0EF
:1001B8008A95F1F776C0AA93A881E9DFE881E295EC
:1001C800E883A881E4DF81E18A95F1F76AC0AA9300
:1001D800E881F0E0E059FE4FE081A981AE0FEBDF46
:1001E8009980888022960895A2E00E942903ACE0B5
:1001F800E2DFA1E00E942903E0E08E2E9E2E089502
:10020800AA93A881AA3011F09B1448F0E0E0EA9381
:100218008394A82DDCDFA881AA3009F442C0939406
:10022800A89AA881C8DFA8983CC0BA93AA931A9341
:10023800A981BA81ED91A983BA831E2FE03019F004
:10024800A12FDEDFF5CF188123960895AA93E4B392
:10025800E06FE4BBA29AA09AA19AAA98A898A99834
:10026800B880E881E058E0937201E881E054E093B7
:100278007301A4E1B0E00E9462030E942F030E9470
:100288002F030E942F03A0E282DF81E28A95F1F713
:10029800A8E291DFA4E08FDFA5E88DDFA6E08BDF81
:1002A800A3DF21960895BA93AA931A930A93AA8171
:1002B800BB8112960E947903309759F1AA81BB81BC
:1002C80014960E9479038F01309761F00230E0E0C4
:1002D8001E0798F0F80131978F01AA81BB81149607
:1002E800ED93FC93AA81BB811296ED91FD91319615
:1002F800FE93EE933197AC81A083AA81BB810E94C3
:100308007903FF232AF0ED91FD913196FE93EE9348
:1003180006C0AA81BB81EFEFFFEFED93FC93198133
:10032800088125960895BA93AA9326970E94860372
:1003380010E0AC85BD85E0E0F0E0ED93FC93EA8940
:10034800FB893196EA8BFB8B3197E4912E2FE030B5
:1003580009F415C1E12FE03039F4253211F411E028
:1003680002C00E9436030AC1E130A9F4253219F40B
:100378000E94360302C112E040E000E02D3211F481
:1003880001E0FCC02B3211F44BE2F8C0203211F42A
:1003980040E2F4C002C0E23039F450E013E0203308
:1003A80011F40068EBC003C0E33009F0E7C0203364
:1003B80010F02A3308F007C0AAE05A9F502DE22F08
:1003C800E0535E0FDBC0E22FE33649F40E943D03A1
:1003D800E889F989A481AA930E944303CEC0E33730
:1003E80041F40E943D030E9449030E94FF021E2F10
:1003F8000AC0E03761F40E943D030E9449030E944D
:100408000B031E2F086002600F7730E034C0E4361B
:1004180011F0E93611F4046002C0E53731F4E4E57F
:10042800F0E0EE83FF8315E00CC0E83511F40860B6
:1004380003C0E83709F0A1C0EEE5F0E0EE83FF83E2
:1004480014E002FF14C00E943D030E945303AB85D1
:10045800AA233AF4EA85FB850E947003EA87FB87A2
:100468004DE2403011F01F5F01C00B7F04C00E94B5
:100478003D030E94530300FD11C0151778F407FFD0
:1004880008C002FF04C00B7F242F115001C020E3D5
:1004980001C020E20E9436035150EFCF312F01FFF7
:1004A80017C03030A1F003FF06C0EE81FF8125910F
:1004B800EE83FF8305C0AE81BF812D91AE83BF83DC
:1004C8000E943603503009F051503150EACF4BC0EA
:1004D80020E3EE81FF810E947D03E887F987EE81A2
:1004E800FF813296EE83FF83E885F985AA85BB856F
:1004F800AE17BF0750F02F5FA885B985EA85FB8541
:10050800EA1BFB0BEA87FB87EFCF2A3328F003FFB0
:1005180002C0295F01C0295D04FD1AC0213320F4FF
:10052800A885B985119709F409C0531710F000FF81
:1005380001C013C020E207FF0BC020E3006102FFE7
:1005480007C00B7F4A930E944303503009F0515073
:100558000E943603503009F051503150A885B985B2
:10056800129708F0B5CF00FF08C0503031F0515055
:10057800E0E2EA930E944303F8CF10E0E0CEAC85B6
:10058800BD850E9479030E948D0364960895FF92A9
:10059800F82E26970E9488030E945B03309719F46F
:1005A800EFEFFFEF23C0DE0116960E946C038D016A
:1005B8000E945B03EE83FF83E0E0E887E987DE01C2
:1005C8001A960E946C030E947903FA93EA931A938D
:1005D8000A93E7E5F1E0FA93EA93DE011A96A3DEBF
:1005E8009F01AE81BF81E0E0EC93F9010E948F0387
:1005F8002A96FF900895BA93AA93A991B991EE27E4
:10060800FF276D91662311F03196FBCF0895BA93B9
:10061800AA93AA27BB27E991F9910590002011F028
:100628001196FBCFFD0108950E9474030E94810377
:1006380084E00E94CB022896E0E0EA9308950E94A5
:10064800EB00A0E6B1E00C9419010E94DF00A3E0E2
:10065800B0E00C946203A0E30E94CB0081E28A958B
:10066800F1F708952A93AD85BE85EF85F889099538
:100678000895E889F9893497E88BF98B0895AD8551
:10068800BE85EF85F88909950895A889B9891496D2
:100698000E947903EE83FF83AE81BF810895A88904
:1006A800B98914960E947903EA87FB870895DE01C9
:1006B8001C960E946C030E9479030895109639F0E5
:1006C800A8958AEF90E00197F1F71197C9F7089577
:1006D8000024AF0DB01D0895F195E195F0400895FF
:1006E8006F2F660F660B762F0895ED91FC91119789
:1006F80008950590F491E02D08957A936A93FA93FA
:10070800EA9308955A934A933A932A931A930A9329
:1007180008955D814C813B812A8119810881089562
:00000001FF
