:100000000C9455000C9400000C9400000C9400001B
:100010000C9400000C9400000C9400000C94000060
:100020000C9400000C9400000C9400000C94000050
:100030000C9400000C9400000C9400000C94000040
:100040000C9400000C9400000C9400000C94000030
:100050000C9400001027E80364000A00010000105F
:1000600000011000010000000000000020202020FE
:10007000202020202020416C692042616261656956
:1000800020200030303A30303A30302020002564D3
:100090003A25643A25642020200080C00600040030
:1000A0006600020070019A000000F894EE27ECBB95
:1000B000F1E0FBBFEBBFE5BF8DE0A2E0BB27ED9316
:1000C0008A95E9F780E094E0A0E6ED930197E9F7DF
:1000D000ECE9F0E085919591009761F0A591B591DB
:1000E00005901590BF01F00105900D920197E1F781
:1000F000FB01F0CFEFE5EDBFE4E0EEBFC0E6D1E0FD
:100100000C948200E0E0EABBEFE0EBBBE0E0E7BB91
:10011000E8BBE4BBE5BBE1BBEFEEE2BBE0E0E3BF85
:10012000E2BFECBFEFBDEEBDEDBDECBDE7BDE6BD92
:10013000EBBDEABDE9BDE8BDE2BDE5BDE4BDE3BDA3
:10014000E9BFE5BFE4BFEAB9E0E8E8B9E0E0E0BF55
:10015000E6B9EDB9E6BFA0E185D00E942003CF99B2
:100160000FC03DD00E9429030E943003E3E8F0E075
:10017000FA93EA9380E00E94D30224960E9420031F
:10018000EECFFFCFAA93E5B3EF70AE2FE881E07F0B
:10019000EA2BE5BB82E08A95F1F7AA9A82E08A957C
:1001A000F1F7AA9882E08A95F1F787C0AA93A8810F
:1001B000E9DFE881E295E883A881E4DF81E18A95BF
:1001C000F1F77BC0AA93E881F0E0E059FE4FE081AF
:1001D000A981AE0FEBDFB980A88022960895A2E036
:1001E0000E945503ACE0E2DFA1E00E945503E0E08D
:1001F000AE2EBE2E0895AA93A881AA3011F0BD1488
:1002000048F0E0E0EA93A394AA2DDCDFA881AA30AD
:1002100009F453C0B394A89AA881C8DFA8984DC028
:10022000BA93AA931A93A981BA81ED91A983BA834B
:100230001E2FE03019F0A12FDEDFF5CF10C0BA93EA
:10024000AA931A93E981FA813196E983FA83319767
:10025000E4911E2FE03019F0A12FCDDFF3CF1881EC
:1002600023960895AA93E4B3E06FE4BBA29AA09A00
:10027000A19AAA98A898A998D880E881E058E09314
:100280007201E881E054E0937301A4E1B0E00E94C0
:100290008E030E945B030E945B030E945B03A0E24B
:1002A00071DF81E28A95F1F7A8E280DFA4E07EDFCA
:1002B000A5E87CDFA6E07ADF92DF21960895BA9365
:1002C000AA931A930A93AA81BB8112960E94A5034E
:1002D000309759F1AA81BB8114960E94A5038F0122
:1002E000309761F00230E0E01E0798F0F801319796
:1002F0008F01AA81BB811496ED93FC93AA81BB81E7
:100300001296ED91FD913196FE93EE933197AC816B
:10031000A083AA81BB810E94A503FF232AF0ED914F
:10032000FD913196FE93EE9306C0AA81BB81EFEF5B
:10033000FFEFED93FC931981088125960895BA93F8
:10034000AA9326970E94B20310E0AC85BD85E0E039
:10035000F0E0ED93FC93EA89FB893196EA8BFB8B05
:100360003197E4912E2FE03009F415C1E12FE030F0
:1003700039F4253211F411E002C00E9462030AC16F
:10038000E130A9F4253219F40E94620302C112E09F
:1003900040E000E02D3211F401E0FCC02B3211F4FA
:1003A0004BE2F8C0203211F440E2F4C002C0E23067
:1003B00039F450E013E0203311F40068EBC003C0BF
:1003C000E33009F0E7C0203310F02A3308F007C00B
:1003D000AAE05A9F502DE22FE0535E0FDBC0E22FC0
:1003E000E33649F40E946903E889F989A481AA9354
:1003F0000E946F03CEC0E33741F40E9469030E945C
:1004000075030E9407031E2F0AC0E03761F40E94A3
:1004100069030E9475030E9413031E2F0860026087
:100420000F7730E034C0E43611F0E93611F404609F
:1004300002C0E53731F4E4E5F0E0EE83FF8315E038
:100440000CC0E83511F4086003C0E83709F0A1C01A
:10045000EEE5F0E0EE83FF8314E002FF14C00E949B
:1004600069030E947F03AB85AA233AF4EA85FB85E2
:100470000E949C03EA87FB874DE2403011F01F5F2A
:1004800001C00B7F04C00E9469030E947F0300FD2E
:1004900011C0151778F407FF08C002FF04C00B7FD6
:1004A000242F115001C020E301C020E20E9462030A
:1004B0005150EFCF312F01FF17C03030A1F003FFB3
:1004C00006C0EE81FF812591EE83FF8305C0AE81DA
:1004D000BF812D91AE83BF830E946203503009F02B
:1004E00051503150EACF4BC020E3EE81FF810E9492
:1004F000A903E887F987EE81FF813296EE83FF83B7
:10050000E885F985AA85BB85AE17BF0750F02F5F38
:10051000A885B985EA85FB85EA1BFB0BEA87FB8783
:10052000EFCF2A3328F003FF02C0295F01C0295D05
:1005300004FD1AC0213320F4A885B985119709F468
:1005400009C0531710F000FF01C013C020E207FFDD
:100550000BC020E3006102FF07C00B7F4A930E949B
:100560006F03503009F051500E946203503009F07F
:1005700051503150A885B985129708F0B5CF00FFCA
:1005800008C0503031F05150E0E2EA930E946F030E
:10059000F8CF10E0E0CEAC85BD850E94A5030E9497
:1005A000B90364960895FF92F82E26970E94B4032B
:1005B0000E948703309719F4EFEFFFEF23C0DE01AD
:1005C00016960E9498038D010E948703EE83FF8395
:1005D000E0E0E887E987DE011A960E9498030E940E
:1005E000A503FA93EA931A930A93EFE5F1E0FA93DD
:1005F000EA93DE011A96A3DE9F01AE81BF81E0E09F
:10060000EC93F9010E94BB032A96FF900895BA93D8
:10061000AA93A991B991EE27FF276D91662311F056
:100620003196FBCF0895BA93AA93AA27BB27E991E5
:10063000F9910590002011F01196FBCFFD0108956E
:10064000ACE6B0E00E941F01E1E0EA93A1E00C9467
:10065000E200E0E0F0E060E070E0DF010C948E0387
:10066000E0E6F1E0FA93EA930895EEE8F0E0FA9319
:10067000EA93F4010E94A0030E94AD03F3010E94DB
:10068000A0030E94AD03F2010E94A0030E94AD03EB
:100690008CE00E94D3026096E0E0EA93A0E00E9422
:1006A000E200A0E6B1E00C9410010E94D600A3E0A5
:1006B000B0E00C948E03A0E30E94C20081E28A9510
:1006C000F1F708952A93AD85BE85EF85F8890995E0
:1006D0000895E889F9893497E88BF98B0895AD85F9
:1006E000BE85EF85F88909950895A889B98914967A
:1006F0000E94A503EE83FF83AE81BF810895A88980
:10070000B98914960E94A503EA87FB870895DE0144
:100710001C960E9498030E94A5030895109639F034
:10072000A8958AEF90E00197F1F71197C9F708951E
:100730000024AF0DB01D0895F195E195F0400895A6
:100740006F2F660F660B762F0895ED91FC91119730
:1007500008950590F491E02D08957A936A93FA93A1
:10076000EA9308955A934A933A932A931A930A93D1
:1007700008955D814C813B812A811981088108950A
:00000001FF
