:020000000C945E
:100002005B000C9400000C9400000C9400000C9413
:1000120000000C9400000C9400000C9400000C945E
:1000220000000C9400000C9400000C9400000C944E
:1000320000000C9400000C9400000C9400000C943E
:1000420000000C9400000C9400000C9400000C942E
:1000520000001027E80364000A00010000100001FC
:1000620010000100000000000000202020202020BD
:100072002020202020202020202020596173696E1A
:10008200204C616368696E616E6920200030303AED
:1000920030303A303020200025643A25643A256415
:1000A2002020200080C006000400660002007001CB
:1000B200A6000000F894EE27ECBBF1E0FBBFEBBF1B
:1000C200E5BF8DE0A2E0BB27ED938A95E9F780E0DA
:1000D20094E0A0E6ED930197E9F7E8EAF0E0859174
:1000E2009591009761F0A591B59105901590BF018A
:1000F200F00105900D920197E1F7FB01F0CFEFE5DA
:10010200EDBFE4E0EEBFC0E6D1E00C948800E0E091
:10011200EABBEFEFEBBBE0E0E7BBE8BBEFEFE4BB32
:10012200E0E0E5BBE1BBE2BBE3BFE2BFECBFEFBD9A
:10013200EEBDEDBDECBDE7BDE6BDEBBDEABDE9BD83
:10014200E8BDE2BDE5BDE4BDE3BDE9BFE5BFE4BF97
:10015200EAB9E0E8E8B9E0E0E0BFE6B9EDB9E6BF48
:10016200A0E1B0D00E945103CF990FC068D00E9485
:100172005A030E946103EFE8F0E0FA93EA9380E009
:100182000E94040324960E945103CC990AC0A4E65B
:10019200B0E00E94BF03442455240E9461030E94E0
:1001A2006603C8991DC00E945A03F20131962F01BD
:1001B2000E9461030E946603E3E6F0E0E415F505A0
:1001C2007CF444245524F30131963F01EBE3F0E043
:1001D200E615F7052CF466247724F40131964F01D5
:1001E200C3CFFFCFAA93E5B3EF70AE2FE881E07FD4
:1001F200EA2BE5BB82E08A95F1F7AA9A82E08A951A
:10020200F1F7AA9882E08A95F1F787C0AA93A881AC
:10021200E9DFE881E295E883A881E4DF81E18A955C
:10022200F1F77BC0AA93E881F0E0E059FE4FE0814C
:10023200A981AE0FEBDFB980A88022960895A2E0D3
:100242000E948603ACE0E2DFA1E00E948603E0E0C8
:10025200AE2EBE2E0895AA93A881AA3011F0BD1425
:1002620048F0E0E0EA93A394AA2DDCDFA881AA304B
:1002720009F453C0B394A89AA881C8DFA8984DC0C6
:10028200BA93AA931A93A981BA81ED91A983BA83E9
:100292001E2FE03019F0A12FDEDFF5CF10C0BA9388
:1002A200AA931A93E981FA813196E983FA83319705
:1002B200E4911E2FE03019F0A12FCDDFF3CF18818A
:1002C20023960895AA93E4B3E06FE4BBA29AA09A9E
:1002D200A19AAA98A898A998D880E881E058E093B2
:1002E2007201E881E054E0937301A4E1B0E00E945E
:1002F200BF030E948C030E948C030E948C03A0E225
:1003020071DF81E28A95F1F7A8E280DFA4E07EDF67
:10031200A5E87CDFA6E07ADF92DF21960895BA9302
:10032200AA931A930A93AA81BB8112960E94D603BA
:10033200309759F1AA81BB8114960E94D6038F018E
:10034200309761F00230E0E01E0798F0F801319733
:100352008F01AA81BB811496ED93FC93AA81BB8184
:100362001296ED91FD913196FE93EE933197AC8109
:10037200A083AA81BB810E94D603FF232AF0ED91BC
:10038200FD913196FE93EE9306C0AA81BB81EFEFF9
:10039200FFEFED93FC931981088125960895BA9396
:1003A200AA9326970E94E30310E0AC85BD85E0E0A6
:1003B200F0E0ED93FC93EA89FB893196EA8BFB8BA3
:1003C2003197E4912E2FE03009F415C1E12FE0308E
:1003D20039F4253211F411E002C00E9493030AC1DC
:1003E200E130A9F4253219F40E94930302C112E00C
:1003F20040E000E02D3211F401E0FCC02B3211F498
:100402004BE2F8C0203211F440E2F4C002C0E23004
:1004120039F450E013E0203311F40068EBC003C05C
:10042200E33009F0E7C0203310F02A3308F007C0A8
:10043200AAE05A9F502DE22FE0535E0FDBC0E22F5D
:10044200E33649F40E949A03E889F989A481AA93C0
:100452000E94A003CEC0E33741F40E949A030E9497
:10046200A6030E9438031E2F0AC0E03761F40E94DF
:100472009A030E94A6030E9444031E2F0860026092
:100482000F7730E034C0E43611F0E93611F404603D
:1004920002C0E53731F4E4E5F0E0EE83FF8315E0D6
:1004A2000CC0E83511F4086003C0E83709F0A1C0B8
:1004B200EEE5F0E0EE83FF8314E002FF14C00E9439
:1004C2009A030E94B003AB85AA233AF4EA85FB851E
:1004D2000E94CD03EA87FB874DE2403011F01F5F97
:1004E20001C00B7F04C00E949A030E94B00300FD6A
:1004F20011C0151778F407FF08C002FF04C00B7F74
:10050200242F115001C020E301C020E20E94930376
:100512005150EFCF312F01FF17C03030A1F003FF50
:1005220006C0EE81FF812591EE83FF8305C0AE8177
:10053200BF812D91AE83BF830E949303503009F097
:1005420051503150EACF4BC020E3EE81FF810E942F
:10055200DA03E887F987EE81FF813296EE83FF8323
:10056200E885F985AA85BB85AE17BF0750F02F5FD6
:10057200A885B985EA85FB85EA1BFB0BEA87FB8721
:10058200EFCF2A3328F003FF02C0295F01C0295DA3
:1005920004FD1AC0213320F4A885B985119709F406
:1005A20009C0531710F000FF01C013C020E207FF7B
:1005B2000BC020E3006102FF07C00B7F4A930E9439
:1005C200A003503009F051500E949303503009F0BB
:1005D20051503150A885B985129708F0B5CF00FF68
:1005E20008C0503031F05150E0E2EA930E94A0037B
:1005F200F8CF10E0E0CEAC85BD850E94D6030E9404
:10060200EA0364960895FF92F82E26970E94E50366
:100612000E94B803309719F4EFEFFFEF23C0DE0119
:1006220016960E94C9038D010E94B803EE83FF83D0
:10063200E0E0E887E987DE011A960E94C9030E947A
:10064200D603FA93EA931A930A93E0E9F1E0FA9354
:10065200EA93DE011A96A3DE9F01AE81BF81E0E03C
:10066200EC93F9010E94EC032A96FF900895BA9345
:10067200AA93A991B991EE27FF276D91662311F0F4
:100682003196FBCF0895BA93AA93AA27BB27E99183
:10069200F9910590002011F01196FBCFFD0108950C
:1006A200ACE6B0E00E945001E1E0EA93A1E00C94D4
:1006B2001301E0E0F0E060E070E0DF010C94BF03C2
:1006C200E0E6F1E0FA93EA930895EAE9F0E0FA93BA
:1006D200EA93F4010E94D1030E94DE03F3010E9417
:1006E200D1030E94DE03F2010E94D1030E94DE03C5
:1006F2008CE00E9404036096E0E0EA93A0E00E948E
:100702001301A0E6B1E00C9441010E940701A3E0AD
:10071200B0E00C94BF03A0E30E94F30081E28A954B
:10072200F1F708952A93AD85BE85EF85F88909957D
:100732000895E889F9893497E88BF98B0895AD8596
:10074200BE85EF85F88909950895A889B989149617
:100752000E94D603EE83FF83AE81BF810895A889EC
:10076200B98914960E94D603EA87FB870895DE01B1
:100772001C960E94C9030E94D6030895109639F070
:10078200A8958AEF90E00197F1F71197C9F70895BC
:100792000024AF0DB01D0895F195E195F040089544
:1007A2006F2F660F660B762F0895ED91FC911197CE
:1007B20008950590F491E02D08957A936A93FA933F
:1007C200EA9308955A934A933A932A931A930A936F
:1007D20008955D814C813B812A81198108810895A8
:00000001FF
