:080000000C944F000C94000069
:100008000C9400000C9400000C9400000C94000068
:100018000C9400000C9400000C9400000C94000058
:100028000C9400000C9400000C9400000C94000048
:100038000C9400000C9400000C9400000C94000038
:100048000C9400000C9400000C9400001027E803A6
:1000580064000A0001000010000110000100000007
:10006800000000000000416C69204261626165691E
:1000780020200025643A25643A25642020200000C9
:1000880080C001000200660006000400680002004B
:10009800700188000000F894EE27ECBBF1E0FBBF8C
:1000A800EBBFE5BF8DE0A2E0BB27ED938A95E9F7AA
:1000B80080E094E0A0E6ED930197E9F7EAE8F0E044
:1000C80085919591009761F0A591B591059015904E
:1000D800BF01F00105900D920197E1F7FB01F0CF08
:1000E800EFE5EDBFE4E0EEBFC0E6D1E00C947C00A4
:1000F800E0E0EABBEFEFEBBBE0E0E7BBE8BBEFEF2C
:10010800E4BBE0E0E5BBE1BBE2BBE3BFE2BFECBFC1
:10011800EFBDEEBDEDBDECBDE7BDE6BDEBBDEABD97
:10012800E9BDE8BDE2BDE5BDE4BDE3BDE9BFE5BFAE
:10013800E4BFEAB9E0E8E8B9E0E0E0BFE6B9EDB964
:10014800E6BFA0E1A8D00E943D03CF990DC044248A
:10015800552466247724882499245AD00E9446037B
:100168000E944D030E943D03CC9902C0E89420F8F8
:10017800C89902C0689420F820FE1BC00E9446035C
:10018800F20131962F010E944D03E3E6F0E0E415F9
:10019800F5057CF444245524F30131963F01EBE343
:1001A800F0E0E615F7052CF466247724F40131967F
:1001B8004F01CBCFFFCFAA93E5B3EF70AE2FE88105
:1001C800E07FEA2BE5BB82E08A95F1F7AA9A82E004
:1001D8008A95F1F7AA9882E08A95F1F787C0AA93E1
:1001E800A881E9DFE881E295E883A881E4DF81E17D
:1001F8008A95F1F77BC0AA93E881F0E0E059FE4FB9
:10020800E081A981AE0FEBDFB980A880229608951E
:10021800A2E00E947103ACE0E2DFA1E00E9471035A
:10022800E0E0AE2EBE2E0895AA93A881AA3011F060
:10023800BD1448F0E0E0EA93A394AA2DDCDFA8817E
:10024800AA3009F453C0B394A89AA881C8DFA89823
:100258004DC0BA93AA931A93A981BA81ED91A98343
:10026800BA831E2FE03019F0A12FDEDFF5CF10C0C2
:10027800BA93AA931A93E981FA813196E983FA83AA
:100288003197E4911E2FE03019F0A12FCDDFF3CF85
:10029800188123960895AA93E4B3E06FE4BBA29A69
:1002A800A09AA19AAA98A898A998D880E881E05815
:1002B800E0937201E881E054E0937301A4E1B0E0B7
:1002C8000E94AA030E9477030E9477030E94770383
:1002D800A0E271DF81E28A95F1F7A8E280DFA4E06D
:1002E8007EDFA5E87CDFA6E07ADF92DF219608951D
:1002F800BA93AA931A930A93AA81BB8112960E9471
:10030800C103309759F1AA81BB8114960E94C10399
:100318008F01309761F00230E0E01E0798F0F80195
:1003280031978F01AA81BB811496ED93FC93AA8122
:10033800BB811296ED91FD913196FE93EE93319724
:10034800AC81A083AA81BB810E94C103FF232AF04C
:10035800ED91FD913196FE93EE9306C0AA81BB8183
:10036800EFEFFFEFED93FC9319810881259608952F
:10037800BA93AA9326970E94CE0310E0AC85BD8558
:10038800E0E0F0E0ED93FC93EA89FB893196EA8B93
:10039800FB8B3197E4912E2FE03009F415C1E12F42
:1003A800E03039F4253211F411E002C00E947E03D6
:1003B8000AC1E130A9F4253219F40E947E0302C172
:1003C80012E040E000E02D3211F401E0FCC02B32D5
:1003D80011F44BE2F8C0203211F440E2F4C002C03C
:1003E800E23039F450E013E0203311F40068EBC038
:1003F80003C0E33009F0E7C0203310F02A3308F0D7
:1004080007C0AAE05A9F502DE22FE0535E0FDBC0D1
:10041800E22FE33649F40E948503E889F989A4812B
:10042800AA930E948B03CEC0E33741F40E94850350
:100438000E9491030E9424031E2F0AC0E03761F432
:100448000E9485030E9491030E9430031E2F0860BA
:1004580002600F7730E034C0E43611F0E93611F469
:10046800046002C0E53731F4E4E5F0E0EE83FF8391
:1004780015E00CC0E83511F4086003C0E83709F04E
:10048800A1C0EEE5F0E0EE83FF8314E002FF14C0A4
:100498000E9485030E949B03AB85AA233AF4EA8550
:1004A800FB850E94B803EA87FB874DE2403011F0D4
:1004B8001F5F01C00B7F04C00E9485030E949B033D
:1004C80000FD11C0151778F407FF08C002FF04C02B
:1004D8000B7F242F115001C020E301C020E20E94AD
:1004E8007E035150EFCF312F01FF17C03030A1F0FC
:1004F80003FF06C0EE81FF812591EE83FF8305C0CF
:10050800AE81BF812D91AE83BF830E947E035030A0
:1005180009F051503150EACF4BC020E3EE81FF8102
:100528000E94C503E887F987EE81FF813296EE8342
:10053800FF83E885F985AA85BB85AE17BF0750F00C
:100548002F5FA885B985EA85FB85EA1BFB0BEA873F
:10055800FB87EFCF2A3328F003FF02C0295F01C0D1
:10056800295D04FD1AC0213320F4A885B9851197A7
:1005780009F409C0531710F000FF01C013C020E2AE
:1005880007FF0BC020E3006102FF07C00B7F4A93FF
:100598000E948B03503009F051500E947E03503066
:1005A80009F051503150A885B985129708F0B5CF98
:1005B80000FF08C0503031F05150E0E2EA930E9449
:1005C8008B03F8CF10E0E0CEAC85BD850E94C10357
:1005D8000E94D50364960895FF92F82E26970E94EC
:1005E800D0030E94A303309719F4EFEFFFEF23C065
:1005F800DE0116960E94B4038D010E94A303EE83C8
:10060800FF83E0E0E887E987DE011A960E94B403D9
:100618000E94C103FA93EA931A930A93ECE7F1E074
:10062800FA93EA93DE011A96A3DE9F01AE81BF8199
:10063800E0E0EC93F9010E94D7032A96FF90089511
:10064800BA93AA93A991B991EE27FF276D916623D2
:1006580011F03196FBCF0895BA93AA93AA27BB2726
:10066800E991F9910590002011F01196FBCFFD0159
:100678000895E1E0EA93A1E00E94FF00AEE6B0E051
:100688000C943C01E0E0F0E060E070E0DF010C94E5
:10069800AA03E0E6F1E0FA93EA93EBE7F0E0FA93D5
:1006A800EA93F4010E94BC030E94C903F3010E946B
:1006B800BC030E94C903F2010E94BC030E94C90343
:1006C8008CE00E94F0026096E0E0EA93A0E00E94CD
:1006D800FF00A0E6B1E00C942D010E94F300A3E016
:1006E800B0E00C94AA03A0E30E94DF0081E28A959F
:1006F800F1F708952A93AD85BE85EF85F8890995A8
:100708000895E889F9893497E88BF98B0895AD85C0
:10071800BE85EF85F88909950895A889B989149641
:100728000E94C103EE83FF83AE81BF810895A8892B
:10073800B98914960E94C103EA87FB870895DE01F0
:100748001C960E94B4030E94C1030895109639F0C4
:10075800A8958AEF90E00197F1F71197C9F70895E6
:100768000024AF0DB01D0895F195E195F04008956E
:100778006F2F660F660B762F0895ED91FC911197F8
:1007880008950590F491E02D08957A936A93FA9369
:10079800EA9308955A934A933A932A931A930A9399
:1007A80008955D814C813B812A81198108810895D2
:00000001FF
