:060000000C946C000C944E
:1000060000000C9400000C9400000C9400000C946A
:1000160000000C9400000C9400000C9400000C945A
:1000260000000C9400000C9400000C9400000C944A
:1000360000000C9400000C9400000C9400000C943A
:1000460000000C9400000C9400000C940000102793
:10005600E80364000A00010000100001100001001E
:1000660020596173696E2000202020203120200055
:100076002020202032202000202020203320200095
:100086002020202034202000202020203520200081
:10009600202020203620200020202020372020006D
:1000A6002020202038202000202020203920200059
:1000B600202020202A202000202020203020200060
:1000C600202020202320200080C002006001CE00D6
:1000D6000000F894EE27ECBBF1E0FBBFEBBFE5BFF9
:1000E6008DE0A2E0BB27ED938A95E9F780E094E0E6
:1000F600A0E6ED930197E9F7E0EDF0E085919591A3
:10010600009761F0A591B59105901590BF01F0019A
:1001160005900D920197E1F7FB01F0CFEFE5EDBFFA
:10012600E4E0EEBFC0E6D1E00C949900EFEFEABB45
:10013600E0E0EBBBE7BBE8BBE0EFE4BBEFE0E5BB31
:10014600E0E0E1BBE2BBE3BFE2BFECBFEFBDEEBD6B
:10015600EDBDECBDE7BDE6BDEBBDEABDE9BDE8BD65
:10016600E2BDE5BDE4BDE3BDE9BFE5BFE4BFEAB975
:10017600E0E8E8B9E0E0E0BFE6B9EDB9E6BFA0E146
:10018600CED0E1E0EA93A1E089D0A6E6B0E0B4D013
:10019600AC98AD9AAE9AAF9A9A9905C00E94BF01E3
:1001A600AEE6B0E0A9D0999905C00E94BF01A6E7C6
:1001B600B0E0A2D0989905C00E94BF01AEE7B0E0BA
:1001C6009BD0AC9AAD98AE9AAF9A9A9905C00E9408
:1001D600BF01A6E8B0E090D0999905C00E94BF0182
:1001E600AEE8B0E089D0989905C00E94BF01A6E9A3
:1001F600B0E082D0AC9AAD9AAE98AF9A9A9905C003
:100206000E94BF01AEE9B0E077D0999905C00E947F
:10021600BF01A6EAB0E070D0989905C00E94BF0160
:10022600AEEAB0E069D0AC9AAD9AAE9AAF989A9918
:1002360005C00E94BF01A6EBB0E05ED0999905C04B
:100246000E94BF01AEEBB0E057D0989905C00E945E
:10025600BF01A6ECB0E050D09BCFFFCFAA93EBB383
:10026600EF70AE2FE881E07FEA2BEBBB82E08A9548
:10027600F1F7DA9A82E08A95F1F7DA9882E08A95C0
:10028600F1F778C0AA93A881E9DFE881E295E883CF
:10029600A881E4DF81E18A95F1F76CC0AA93E88131
:1002A600F0E0E05AFE4FE081A981AE0FEBDF598006
:1002B600488022960895A2E00E94C401ACE0E2DFE5
:1002C600A1E00E94C401E0E04E2E5E2E0895AA939E
:1002D600A881AA3011F0571448F0E0E0EA9343945D
:1002E600A42DDCDFA881AA3009F444C05394D89A1F
:1002F600A881C8DFD8983EC0BA93AA931A93E98119
:10030600FA813196E983FA833197E4911E2FE03022
:1003160019F0A12FDCDFF3CF188123960895AA9355
:10032600EAB3E06FEABBD29AD09AD19ADA98D89813
:10033600D9987880E881E058E0936201E881E0543A
:10034600E0936301A4E1B0E00E94D1010E94CA01DA
:100356000E94CA010E94CA01A0E280DF81E28A955A
:10036600F1F7A8E28FDFA4E08DDFA5E88BDFA6E03A
:1003760089DFA1DF21960895E0E0EA93A0E00C94DE
:1003860051010E944501A3E0B0E00C94D101A0E325
:100396000E94310181E28A95F1F70895109639F0AD
:1003A600A8958AEF90E00197F1F71197C9F708959C
:00000001FF
