:020000000C945E
:100002002A000C9400000C9400000C9400000C9444
:1000120000000C9400000C9400000C9400000C945E
:1000220000000C9400000C9400000C9400000C944E
:1000320000000C9400000C9400000C9400000C943E
:1000420000000C9400000C9400000C9400000C942E
:100052000000F894EE27ECBBF1E0FBBFEBBFE5BF7D
:100062008DE0A2E0BB27ED938A95E9F780E094E06A
:10007200A0E6ED930197E9F7EFE5EDBFE4E0EEBF0F
:10008200C0E6D1E00C944500E0E0EABBEFEFEBBB49
:10009200E4BBE1BBC89902C0C99B01C010C0EFEF2D
:1000A200E2BBEDE60ED0E6E60CD0EFE40AD0EBE5DB
:1000B20008D0E6E006D0EFE3E5BBE0E0E2BBE4CF48
:1000C200FFCFE5BBA8EEB3E00C946700109639F0C1
:1000D200A8958AEF90E00197F1F71197C9F7089573
:00000001FF
