:040000000C942A0032
:100004000C9400000C9400000C9400000C9400006C
:100014000C9400000C9400000C9400000C9400005C
:100024000C9400000C9400000C9400000C9400004C
:100034000C9400000C9400000C9400000C9400003C
:100044000C9400000C9400000C9400000C9400002C
:10005400F894EE27ECBBF1E0FBBFEBBFE5BF8DE00E
:10006400A2E0BB27ED938A95E9F780E094E0A0E64F
:10007400ED930197E9F7EFE5EDBFE4E0EEBFC0E6ED
:10008400D1E00C944500EFEFE4BBE1BBEFEFE2BB42
:10009400E6E6E5BBEEEF12D0EFE7E5BBEDEF0ED001
:1000A400E7E2E5BBEBEF0AD0E7E2E5BBE7EFE2BB53
:1000B400A4E0B0E00E946800E9CFFFCFE2BBA4E077
:1000C400B0E00E946800EFEFE2BB0895109639F0AB
:1000D400A8958AEF90E00197F1F71197C9F7089571
:00000001FF
