:080000000C9440000C94000078
:100008000C9400000C9400000C9400000C94000068
:100018000C9400000C9400000C9400000C94000058
:100028000C9400000C9400000C9400000C94000048
:100038000C9400000C9400000C9400000C94000038
:100048000C9400000C9400000C9400000000C20CFA
:100058003F0006005B004F0066006D007D00270032
:100068007F006F00010002005400020004005600E7
:100078001300600158000000F894EE27ECBBF1E093
:10008800FBBFEBBFE5BF8DE0A2E0BB27ED938A95F0
:10009800E9F780E094E0A0E6ED930197E9F7ECE654
:1000A800F0E085919591009761F0A591B591059043
:1000B8001590BF01F00105900D920197E1F7FB0142
:1000C800F0CFEFE5EDBFE4E0EEBFC0E6D1E00C9481
:1000D8006D00E0E0EABBEFEFE4BBE1BBEBBBC89926
:1000E80008C020FC05C0F20131962F01689420F861
:1000F80002C0E89420F8C99908C021FC05C0F201A3
:1001080031972F01689421F802C0E89421F8EFE0B4
:10011800E2BBD201E8EEF3E020D0EEE02ED0E4E638
:10012800F0E01BD0EDE029D0EAE0F0E016D0EBE0FB
:1001380024D0EAE0F0E00E94F000A0E6B1E0EE0F83
:10014800FF1FAE0FBF1FEC91E5BBE7E0E2BBA4E0E9
:10015800B0E00E94CA00C3CFFFCF0E94EB00DF01CE
:10016800EAE0F0E00E94F000A0E6B1E0EE0FFF1F29
:10017800AE0FBF1FEC91E5BB0895E2BBA4E0B0E071
:100188000E94CA00EFE0E2BBD2010895109639F050
:10019800A8958AEF90E00197F1F71197C9F70895AC
:1001A800F195E195F04008950024112490E1AA0FFB
:1001B800BB1F001C111C0E1A1F0A18F40E0E1F1E5E
:1001C80001C0A1609A9599F7FD01D001089512D058
:1001D800EBDF0EF4E5DF0895E894B7FF04C0A095BF
:1001E800B09511966894F7FDDBDFDEDFFD010EF4B4
:1001F800D7DF0895E894F7FF02C0D2DF6894B7FF0D
:1002080006C0A095B095119600F8039400FA0895D9
:00000001FF
