:0C0000000C942A000C9400000C940000EA
:10000C000C9400000C9400000C9400000C94000064
:10001C000C9400000C9400000C9400000C94000054
:10002C000C9400000C9400000C9400000C94000044
:10003C000C9400000C9400000C9400000C94000034
:10004C000C9400000C940000F894EE27ECBBF1E04B
:10005C00FBBFEBBFE5BF8DE0A2E0BB27ED938A951C
:10006C00E9F780E094E0A0E6ED930197E9F7EFE57E
:10007C00EDBFE4E0EEBFC0E6D1E00C944500E0E05B
:10008C00EABBEFEFEBBBE4BBC89902C0E7E20DC0E3
:10009C00C99902C0EFE609C0CA9902C0EFE505C0D4
:1000AC00CB9902C0E6E001C0EFE3E5BBEDCFFFCF9B
:00000001FF
