:0C0000000C943F000C9400000C940000D5
:10000C000C9400000C9400000C9400000C94000064
:10001C000C9400000C9400000C9400000C94000054
:10002C000C9400000C9400000C9400000C94000044
:10003C000C9400000C9400000C9400000C94000034
:10004C000C9400000C9400001027E80364000A00D4
:10005C00010000100001100001000000743D256437
:10006C00000080C0020004006600020070016E00F7
:10007C000000F894EE27ECBBF1E0FBBFEBBFE5BF53
:10008C008DE0A2E0BB27ED938A95E9F780E094E040
:10009C00A0E6ED930197E9F7E0E7F0E08591959103
:1000AC00009761F0A591B59105901590BF01F001F5
:1000BC0005900D920197E1F7FB01F0CFEFE5EDBF55
:1000CC00E4E0EEBFC0E6D1E00C946C00E0E0EABBEB
:1000DC00EFEFEBBBE0E0E7BBE8BBE4BBE5BBEFEF6E
:1000EC00E1BBE2BBE0E0E3BFE2BFECBFEFBDEEBDC6
:1000FC00EDBDECBDE7BDE6BDEBBDEABDE9BDE8BDC0
:10010C00E2BDE5BDE4BDE3BDE9BFE5BFE4BFEAB9CF
:10011C00E0E8E8B9E0E0E0BFE6B9EDB9E6BFA8E099
:10012C007ED0C8991BC0F20131962F01E0E6F1E0B8
:10013C00FA93EA93E8E6F0E0FA93EA93F2010E946C
:10014C004E030E945B0384E00E94B6022896E0E016
:10015C00EA93A0E025D0A0E6B1E050D0E2CFFFCFEB
:10016C00AA93E5B3EF70AE2FE881E07FEA2BE5BBF5
:10017C0082E08A95F1F7AA9A82E08A95F1F7AA981B
:10018C0082E08A95F1F776C0AA93A881E9DFE8812D
:10019C00E295E883A881E4DF81E18A95F1F76AC0F2
:1001AC00AA93E881F0E0E059FE4FE081A981AE0FFF
:1001BC00EBDF7980688022960895A2E00E94030309
:1001CC00ACE0E2DFA1E00E940303E0E06E2E7E2EA5
:1001DC000895AA93A881AA3011F0791448F0E0E0B0
:1001EC00EA936394A62DDCDFA881AA3009F442C0FF
:1001FC007394A89AA881C8DFA8983CC0BA93AA9314
:10020C001A93A981BA81ED91A983BA831E2FE0308C
:10021C0019F0A12FDEDFF5CF188123960895AA934C
:10022C00E4B3E06FE4BBA29AA09AA19AAA98A8980A
:10023C00A9989880E881E058E0937201E881E05435
:10024C00E0937301A4E1B0E00E943C030E94090317
:10025C000E9409030E940903A0E282DF81E28A95D1
:10026C00F1F7A8E291DFA4E08FDFA5E88DDFA6E02F
:10027C008BDFA3DF21960895BA93AA931A930A935E
:10028C00AA81BB8112960E945303309759F1AA811F
:10029C00BB8114960E9453038F01309761F002309A
:1002AC00E0E01E0798F0F80131978F01AA81BB811D
:1002BC001496ED93FC93AA81BB811296ED91FD915E
:1002CC003196FE93EE933197AC81A083AA81BB81CA
:1002DC000E945303FF232AF0ED91FD913196FE937A
:1002EC00EE9306C0AA81BB81EFEFFFEFED93FC9379
:1002FC001981088125960895BA93AA9326970E948E
:10030C00600310E0AC85BD85E0E0F0E0ED93FC937C
:10031C00EA89FB893196EA8BFB8B3197E4912E2F7E
:10032C00E03009F415C1E12FE03039F4253211F435
:10033C0011E002C00E9410030AC1E130A9F4253279
:10034C0019F40E94100302C112E040E000E02D32CB
:10035C0011F401E0FCC02B3211F44BE2F8C0203256
:10036C0011F440E2F4C002C0E23039F450E013E082
:10037C00203311F40068EBC003C0E33009F0E7C090
:10038C00203310F02A3308F007C0AAE05A9F502DF2
:10039C00E22FE0535E0FDBC0E22FE33649F40E94FC
:1003AC001703E889F989A481AA930E941D03CEC082
:1003BC00E33741F40E9417030E9423030E94EA02D0
:1003CC001E2F0AC0E03761F40E9417030E9423031A
:1003DC000E94F6021E2F086002600F7730E034C0D6
:1003EC00E43611F0E93611F4046002C0E53731F45B
:1003FC00E4E5F0E0EE83FF8315E00CC0E83511F482
:10040C00086003C0E83709F0A1C0EEE5F0E0EE8328
:10041C00FF8314E002FF14C00E9417030E942D03F7
:10042C00AB85AA233AF4EA85FB850E944A03EA8746
:10043C00FB874DE2403011F01F5F01C00B7F04C001
:10044C000E9417030E942D0300FD11C0151778F4AC
:10045C0007FF08C002FF04C00B7F242F115001C0FE
:10046C0020E301C020E20E9410035150EFCF312F46
:10047C0001FF17C03030A1F003FF06C0EE81FF81F1
:10048C002591EE83FF8305C0AE81BF812D91AE8394
:10049C00BF830E941003503009F051503150EACF05
:1004AC004BC020E3EE81FF810E945703E887F98758
:1004BC00EE81FF813296EE83FF83E885F985AA856C
:1004CC00BB85AE17BF0750F02F5FA885B985EA85AD
:1004DC00FB85EA1BFB0BEA87FB87EFCF2A3328F05F
:1004EC0003FF02C0295F01C0295D04FD1AC021333E
:1004FC0020F4A885B985119709F409C0531710F099
:10050C0000FF01C013C020E207FF0BC020E3006115
:10051C0002FF07C00B7F4A930E941D03503009F065
:10052C0051500E941003503009F051503150A885A1
:10053C00B985129708F0B5CF00FF08C0503031F0E4
:10054C005150E0E2EA930E941D03F8CF10E0E0CE98
:10055C00AC85BD850E9453030E9467036496089581
:10056C00FF92F82E26970E9462030E943503309763
:10057C0019F4EFEFFFEF23C0DE0116960E9446033D
:10058C008D010E943503EE83FF83E0E0E887E98765
:10059C00DE011A960E9446030E945303FA93EA93D3
:1005AC001A930A93E2E4F1E0FA93EA93DE011A96C5
:1005BC00A3DE9F01AE81BF81E0E0EC93F9010E94C4
:1005CC0069032A96FF900895BA93AA93A991B991B9
:1005DC00EE27FF276D91662311F03196FBCF08951E
:1005EC00BA93AA93AA27BB27E991F9910590002009
:1005FC0011F01196FBCFFD0108950E94CA00A3E0F3
:10060C00B0E00C943C03A0E30E94B60081E28A9512
:10061C00F1F708952A93AD85BE85EF85F889099584
:10062C000895E889F9893497E88BF98B0895AD859D
:10063C00BE85EF85F88909950895A889B98914961E
:10064C000E945303EE83FF83AE81BF810895A88976
:10065C00B98914960E945303EA87FB870895DE013B
:10066C001C960E9446030E9453030895109639F07D
:10067C00A8958AEF90E00197F1F71197C9F70895C3
:10068C000024AF0DB01D0895F195E195F04008954B
:10069C006F2F660F660B762F0895ED91FC911197D5
:1006AC0008950590F491E02D08957A936A93FA9346
:1006BC00EA9308955A934A933A932A931A930A9376
:1006CC0008955D814C813B812A81198108810895AF
:00000001FF
