:100000000C942A000C9400000C9400000C94000046
:100010000C9400000C9400000C9400000C94000060
:100020000C9400000C9400000C9400000C94000050
:100030000C9400000C9400000C9400000C94000040
:100040000C9400000C9400000C9400000C94000030
:100050000C940000F894EE27ECBBF1E0FBBFEBBF83
:10006000E5BF8DE0A2E0BB27ED938A95E9F780E03C
:1000700094E0A0E6ED930197E9F7EFE5EDBFE4E04A
:10008000EEBFC0E6D1E00C944500EFEFEABBE1E043
:1000900038D0E0E036D0E2E034D0E0E032D0E4E046
:1000A00030D0E0E02ED0E8E02CD0E0E02AD0E0E153
:1000B00028D0E0E026D0E0E224D0E0E022D0E0E466
:1000C00020D0E0E01ED0E0E81CD0E0E01AD0E0E470
:1000D00018D0E0E016D0E0E214D0E0E012D0E0E189
:1000E00010D0E0E00ED0E8E00CD0E0E00AD0E4E090
:1000F00008D0E0E006D0E2E004D0E0E002D0C7CFD4
:10010000FFCFEBBBAAEFB0E00C948600109639F05D
:10011000A8958AEF90E00197F1F71197C9F7089534
:00000001FF
